:400000000020002011000000671100006711000038B51C4A1C4B1D4D1A601D4B1A681023134000D12B602B68802B29D1194B1C78E4B2012C14D90021052001F03FF80121A5
:40004000041C052001F03AF8E4B2C0B2002C03D0041E05D0032403E0441EA0410224241A00230220211C2B6001F028F8002807D0012C05D8211C022001F020F801F072F87F
:4000800001F0C0F96588EDAC380003409800002054000340B40000200000000000000000000000000000000000000000000000000000000000000000000000000000000072
:4000C00000000000000000000000000000000000000000000000000000000000000000000100023061700055AD11061D0600000000000000000000000000000000000000C0
:4001000010B5064C2378002B07D1054B002B02D0044800E000BF0123237010BD00010020000000006C15000008B5084B002B03D00748084900E000BF07480368002B00D1A9
:4001400008BD064B002BFBD09847F9E7000000006C15000004010020A8000020000000004368F7B59C4683680C1C63440833CB1800212668676801921A68051CD000801918
:40018000794120606160511C19606346E6188023B21813726B68AA68E3189B189B68382B1BD96A68AB68D3180833E31819683F2906D8481C18600023A21852181372F0E78C
:4001C000201C0832A218AB690830012198476B68AA68E3189B1800229A606A68AB68D3180833E3181968A218372905D8481C1860002352181372F0E7636840321B0E1370A7
:400200006B686268E3184133120C1A706B68261C6268E3184233120A1A706B682279E31843331A706B682268E3184433120E1A706B682268E3184533120C1A706B6822685E
:40024000E3184633120A1A706B682278E31847331A706A6808360832A218301C0121AB699847301C0022019F2B689B089A420DD2036801321B0E3B7003681B0C7B7003683A
:400280001B0ABB7008C8FB700437EDE7F7BDF0B500248700201CBC420DD01559002802D068426841013D1E59B54200D20120AD1B0D510434EFE7F0BD431E002812D09A0049
:4002C0008A58002A01D1181CF6E7074B4201C3189B00595880231B06194202D15B08013AFAE7101C7047C046FFFFFF3FF0B5D1B0039007910492079B5A1E079200D2ADE0C4
:400300000023039908AAC95899500433202BF8D10024049B1A7811065A7812040A43D9780A439978043309020A4310A962500434402CEFD111A941AE4A6B0C1F086A2468C2
:400340001325171C2418101CEF41023DE841051C0B687D40920A55401F1C1222181CD7410B3AD041DB08474064197B40E318CB630431B142E0D10F9B0E9E9C460D9B0C9C53
:4003800001930B9B099D06930A9B089A029300230093009910ABCF58314B201CCB58211CFF180B23D941053BD841031C201C4B401921C841011C5940019B7F1873402340BF
:4003C0007340FB182F1C06996344C9180591029917430F40111C29400F43101C0D21C8418446101C0B39C841011C6046484084461621101CC841011C604641407918CB1824
:400400000099B4460431009102990098069180214900884206D00295019E151C01941A1C059CB6E70893029B05990B9300230C9101990F960D940E9109920A95039908AA64
:40044000C958D2588C46039900926244CA500433202BF3D1049B403304934CE751B0F0BD7015000010B5002802D00B4B0B4A02E0E0220B4B520118780A4BD11800231478A8
:4004800001321B19DBB28A42F9D15B42DBB2C01A43425841C0B210BD40FF010080040100C0FF010080E8000008B5131C8200081C191C01F00EF808BDF7B50024A0421ED041
:4004C000A34202D1FFF7F0FF19E0156820272E1CFF1ABE40800001960090DD402E1C009D201DA84207D01558AC46BD4035430D51041C6546F1E749190439019C0E60201CDD
:40050000FEBD08B58200081C002101F023F808BDF0B51C1C9DB004900E911892C200081C002101F017F8049B251C9B000A930A9A0E9B9C1853420F9300230593049B059A54
:40054000013B9A4277D22B68002619936B68002710930F9B06960797E3580093002301930F9BE3180B93002308930993089B049A934248D00021089B189A9B00D358199AF5
:400580001193181C0B1C00F06BFF1B910021109A1A900B1C099800F063FF1B9B8C46029300230393069A079B92197B41009E019F002192197B4113911A99129014910021A3
:4005C000129E139F92197B411591149E159F92197B411791169302980399169E179F36184F410B99089B496801330091002101910B990696079704C10B910893119B66464E
:4006000009930027B2E70021009A019B92197B41069E079F0998B6185F410B1C109A00F01FFF36184F41059B26600233676005930835083482E7131E049A934227D29C00B5
:400640000E9B00221C1900232E68271C0025009201930021189AAB00D058321C0B1C00F0FFFE3B6801350C9300230D930C9A0D9B80185941009A019B801859410023019351
:40068000049B01C700919D42E3D10A9BE1501DB0F0BDF8B5051C0F1C069C00682668C10071182160311CFFF733FF281C391C321C231C6E68B0472B682268DB00D31A236033
:4006C000F8BDF0B58FB0049303680A91019301330093019B071C9D1CAD00411900980B92FFF7EAFD083D0290012805D10A9800212A1C00F02FFF72E0029B0198023B05937E
:400700005B090693029B5B090793049B079A1E68009B0C965B0008939B1A09939C00009B3419DB00E31803931423009A03995343049AF31813603A1C08320D94FFF7B4FEEF
:40074000039B002158191F25042200F003FF089B069A023B981A08930B9B92009A18059B311C2B40FFF7A8FE3B68211C9A1C9200BA180098331CFFF7CBFE079B311C9A0019
:40078000029BA2182B400998FFF796FE211C0198039A331CFFF7BCFE211C231C08980B9AFFF775FD01241C3D01273B1C63409B000CA9A20059580CABD2580098039BFFF761
:4007C00066FD013D44407C40002DEDD10CABA400E25801980A99FFF767FE049B1E600FB0F0BD00000023F0B5ABB0029303934F4B984200D990E0002900D18DE001908022D3
:400800000AA800F066FE4A4B019A9A4201D8494B00E0494B08937F2308AF7B60474C484E484B27603360C04623681B0F0F2B02D12368DBB205E022680023120F0A2A00D089
:4008400023680293029D002D68D100F056FE3E4B3E4904AA0493059122603D4A374B3260C0462268120F0F2A02D11D68EDB204E01A68120F0A2A00D01D680395039B002BB5
:4008800012D1344D2D4A2560334D3560C04625682D0F0F2D02D11368DBB204E015682D0F0A2D00D013680293029B002B18D12B4A0892019A089D12042A43294D089227600F
:4008C0001E4A3560C04625682D0F0F2D02D11368DBB204E015682D0F0A2D00D013680293039B002B15D11F4A06AD069207911E492560124A3160C0462168090F0F2902D1DB
:400900001368DBB204E01168090F0A2900D01368039300F0F6FD01E004230293029B581E834105205B4218402BB0F0BDFF030000FF010000B6D70000B6D7000108001040B8
:400940000400104004000080B6E900008001002016000080B6E8000015000080B6D8000005000080B6EA000017000080F0B5AFB002AF62B60121C74B1A680A431A60196881
:40098000C54A0A401A6084239B011A69C34B1B699A4206D30020FFF765FD002801D0732008E3BF4CBF49201C802200F092FDBE4D211C281C802200F08CFDFF21201C4902AA
:4009C000802200F086FD281C211C8022803000F080FD382110237918B44ACB1813CA13C313CA13C303CA03C3002200233A647B64A8230026FB181E6008233832BA18D01818
:400A0000AB49AC4A00F0E4FB38220823BA18D0188021A94A00F0DCFB38220823A74DBA18D118A7482A1CFFF79BFB8B234024A54A9B00EA500433E818311CFC222C6200F078
:400A400089FD291C8022A04B28310433201C520000F092FB9D4B6B622B6AFB626B463B61FB6A5A1E002B00D1D7E09300EB189B6A002B01D1131CF4E72835291CF86AFFF763
:400A80001BFC43097B62021C1F23041C1A403A6207222134640962437B6A6946D21A9200131C0A33DB08DB00CB1A9D4602AB7B639B187A6ABB606300FB619B1A7A6BBB613A
:400AC0009B00D3187B617A69E300D218D618A300FB60FB6AB8623A63A34209D2FB69FA6A981A3B6B91005918FFF70BFDF86A06E03B6BFA68201C9918FFF703FD201C2A1C47
:400B0000396BFFF7D1FC201C311CFFF7FAFC1F22BB6A201C591C0A404B09012191400A1C9B00F31819680A431A60311C321C3B6BFFF7ADFB7B6A7A699B00D2187A627A6B30
:400B4000D518331C201C7969321CFFF7E1FC3B6A002B04D0796AB8690A1CFFF7ADFC7B6A201C796B3A6BFFF7D3FC3B6A002B04D0B869291C2A1CFFF79FFC291C2A1C331C63
:400B8000201CFFF784FB2B1C7860311C201C321CFFF77DFB7B68002BD3D1201C796B321C3B6BFFF7B5FC0123796A601E08C1FFF7A8FCBB6A5D00F869796BFFF77DFBA842AC
:400BC0000CD9311C321C7B6A201CFFF760FB796BF8690A1C3B6BFFF75AFBECE7FB6A321C9D1CAB00354D201C2035ED18291CFFF75BFCFB6A581CFB68001BE918FFF781FC48
:400C00000021BB687A6B786B9A1A9210B96300F0A1FCBB6B7A6BD3181B783B69274D9D466B46291CFB612B6A2831181CFB62FFF743FB6A46FB6A2E1C9B000A33DB08DB002B
:400C4000D31A9D4602AB7B638023C21D2036D20800245B009A4200D06DE1796B124BF86A00F08AFA2C6AE3000C33F3183B626B46201C396ABB61FFF71FFBB862031E27D188
:400C8000786B0133621E08C09200B96A00F062FCA1E0C046DC010A40FFFFFEFF800901000002002080FD0100800200208C17000080E800008004010000FD0100800300202C
:400CC000AC1700000100010070160000C3060000E30006331B199B001A1C69460A32D208D2008A1A954602AAD3187B64A3003B63131C7A623A6B9D1800223D64A24210D006
:400D00009300396B5B425918786B04394158386B043B1B18D7480132C3189B6A9942EDD01AD9E600AB193B643B6B00211A1CE81800F010FC201C291C7A6B3824FFF7B4FB3A
:400D40000823CC483C19E3182030796B2A1CFFF7B8FC3B6C9E1B3E64C64B796A186A7A6BFFF7A2FBBB6A9C1E012B30D100213B6C3A6BF9639C1A7B6C201C1A1B92103C64AB
:400D800000F0E8FBFB6BE4182378BB699D4622E038220823BA18D618B64D0096796B20350A1C0B1C281CFFF774FC1F236209396A920052582340DA40131CDB0706D50096C1
:400DC000796B281C0A1C7B6AFFF763FC013CBB6A9C42DDD3CAE7C0B0F86A796BFFF76CFA8026073002ACC00876000025FF2800D8351A00212A1C201C00F0ACFB796BF86AFC
:400E0000FFF75AFA0730C008761B011EB14200D9311C4A190325401A8308A218284010D07E6B5D1C9B009E59C300DE40331C061F9619013A13701B0AB242FAD12B1C043910
:400E40000918786B9D0040193863101C8E1A8619032E0CD93D6B2E68051FAC4601380670360A6045FAD13D6B04353D63EEE703258808C318800029404042002908D1012228
:400E8000637826785A40231C3243A11CCC330AE07D6B9B005D594B1E461A9619F5542D0A013BF9D2EBE7994205D00E780131F6433243D2B2F7E7231C3025CD331E78097898
:400EC0006E400E43324331265878997870400243131C201C69400B430B226749D130DEB200F0E8FA231CDC331B782B3D5D40231CDE331A7804235340221CDD322B431578E5
:400F00005C492B4303431D1C231C0D20D0331B7820224340201C3343DF34E0301D4300F0C9FA23782024EDB25C402C43204343B25C425C41E4B2FB6970209D46002C00D1EA
:400F4000662000F097F90A2000F094F90120FFF789FA00282DD0002C2BD0632000F08AF90A2000F087F9454C454DE1018022281C00F0AFFA201CD238FF3880B2291CFFF7E0
:400F800031FC404B01349C42EED1281C20223E49403000F09EFA291C3C48FFF723FC00213B48FFF71FFCFF2000218000FFF71AFC05E05A2000F05EF90A2000F05BF9354CAE
:400FC0000020251C30352870FFF74CFA002801D104232B70231C082630331A782E4932431A700A682D4892B20D1C824202D100230B6035E008680A68197831421ED1284EEA
:4010000092B20123B2421DD004220A401AD1131C244A81B2914215D0FF2252021278002A07D1194AD169204AD26991425B41DBB208E0013A531E9A41D3B203E004220B1C21
:4010400013400DD1194A137000F08EF800F08CF88023174A2B60136816499BB20B43136030230A4A6386144B1A805A802F229A80FEE7C046800300208017000009020000FA
:4010800000020020DA03000040FF0100FF030000FB03000080060020980000204C4200003242000031420000C0FF0100B40000200CED00E00400FA05AC000020013800B5F4
:4010C0000B282FD8C901494200F0C0F906080A0C0E10141216191B20164B13E0164B16E0164B0AE0164B12E0164B0BE0164B09E0164B02E0164B00E0164BC91814E0164BEC
:4011000005E0164BC9180878C0B211E0144BC9180A7848788B7800021B041843CB7810431B0604E001BE00210B7848780002184300BDC046C0FF0100C1FF0100C5FF010080
:40114000C9FF0100D0FF0100D1FF0100D6FF0100D2FF0100D4FF0100D8FF0100DCFF0100E0FF01000047FEE708B5024800F0BCF908BDC046005307008022F0B552001C78CB
:40118000002C03D1013A0133002AF8D18400A2421BD800259A189A420ED90024261C013A9A4205D31778A74008343E43202CF6D1AC000E510135EEE70023854203D2AA00BE
:4011C0008B500135F8E7181C01E001204042F0BDF0B5041C0D1C161C87B0002D47D0A36E0193002B18D1402D16D9201CAF09321C0830391CFFF77AF8BB01ED1AF6187B0265
:401200000293019B0393029803992268636812184B4122606360E0E74023019A2F1C9B1A9D4200D91F1C0198311C283020183A1C00F04FF9A36EED1BFB18A366F619402BF6
:40124000CBD1201C221C0027083001212832FFF74DF8A36E0597DB000493049805992268636812184B41A76622606360B5E707B0F0BD0000034B1B68DBB2402BFAD0024BAC
:401280001860704708020540400205400023F7B59A003F49032B01D83E4989583E4801338150262BF4D172B690223C4B12011A603B4A3C4B3C491A6040223C4B3C4D1A6043
:4012C00020233C4A13603C4A13603C4A11603C4A136012223B4B1A6000F00FF902222B68019013404ED11F1C0722374C236893432360012F01D1354B00E0354B07267F206A
:401300001B78344ADBB21360334A34491368B3431360334A0B6812788343024013430B604D3800F0E1F8052223683220B3431343236000F0D9F806222368B3431343236017
:40134000012F03D12B68043A13432B60019800F0D8F88022234B52011A60234A234B1A600023234A1360234A1360234A1360234B1A68002A00D11A600121214A13680B43AE
:401380001360F7BD2B68012793432B60ACE7C04667110000000000000000002000010240DD00900000020240360003000801044024000C400C0104400002044008020440EA
:4013C0001802044030001040080F0340BFF1FF0FFDF1FF0F0C0F0340100F0340180F0340E4F1FF0F0002014000FF0080000001402800034000010140A000002098000020C6
:401400000000104070B50F490F4B01394A1C15D000221E685C689D68A018AA4203D0B058A0500432F8E7021CDC68151AA54202D0002520C2F9E710330139E7E700F064F843
:40144000FFF794FA01000000F017000002B4714649084900095C49008E4402BC7047C046F0B54F46464605042D0C2C1CC0B41704160C3F0C9946030C7C4375435F437343D5
:401480007D19260CAD199C46AF4203D980235B029846C4444B465143434324042E0C240C2D0466442C1959188919201C0CBC90469946F0BD30B50024944208D0035D651C9B
:4014C0000C5DA34201D0181B02E02C1CF4E7002030BD002310B5934203D0CC5CC4540133F9E710BD000000000230800803D00138FDD1C046C046C0467047EFF3108072B6E0
:40150000704780F3108870470E4B70B500251E1C0D4CE41AA410A54204D0AB00F35898470135F8E700F052F9084B00251E1C084CE41AA410A54204D0AB00F35898470135EC
:40154000F8E770BDD8170000D8170000D8170000E0170000031C8218934202D019700133FAE77047801800003B00000000000000982F8A4291443771CFFBC0B5A5DBB5E9A6
:401580005BC25639F111F159A4823F92D55E1CAB98AA07D8015B8312BE853124C37D0C55745DBE72FEB1DE80A706DC9B74F19BC1C1699BE48647BEEFC69DC10FCCA10C2411
:4015C0006F2CE92DAA84744ADCA9B05CDA88F97652513E986DC631A8C82703B0C77F59BFF30BE0C64791A7D55163CA0667292914850AB72738211B2EFC6D2C4D130D385382
:4016000054730A65BB0A6A762EC9C281852C7292A1E8BFA24B661AA8708B4BC2A3516CC719E892D1240699D685350EF470A06A1016C1A419086C371E4C774827B5BCB0342D
:40164000B30C1C394AAAD84E4FCA9C5BF36F2E68EE828F746F63A5781478C8840802C78CFAFFBE90EB6C50A4F7A3F9BEF27871C601000100BE204F5865A1077C626A037BBF
:401680000C0790E7B320F54001960A8FB156B7ADB5407D50BCDD274AEFA363261522C48CCA92C6B0C16766134D47F0E0D3A756AC0CF7A91C8A99C1490B5AC16902B468DFBB
:4016C0008EE281B631FE95DD68F9E45CD8913E8843FC0732444A5075976B2C78900AFA2AB0E09FC8F94E5B12F5DF955FE24DF1C06D2283851FDFA8BA56B8F7C4B49F87F0C6
:40170000B07B137C65195E53A9BEE4B6114938E766497D2B0C839BAD66B5B76A4E59DF7A24E9D507655B6804D7235A54CA8670ED34D14DA281936D1B2BF9EC656C9DA5CBF4
:40174000812E487EA53E521EE23E2D0366DB078A1A3FCCCC7E38FA1FD5D0B4D8020BE866F6DE3EB35D17C0FED74A85BE777D5853AF44242F000000000000000000000000F3
:4017800006096086480165030402010067E6096A85AE67BB72F36E3C3AF54FA57F520E518C68059BABD9831F19CDE05B2000000020000000400000000B0000008017000008
:4017C0008C170000ED02000061010000F8B5C046F8BC08BC9E467047290100008D120000F8B5C046F8BC08BC9E4670470101000000180000A800002010000000C8070000DF
:4018000000000000FF030004FF033200020000000000000000000000000000000000000000000000000000000000000000000000000000000000000000000000000000006C
:401840000000000000000000000000000000000000000000000000000000000000000000000000000000000000000000000000000000000000000000000000000000000068
:401880000000000000000000000000000000000000000000000000000000000000000000000000000000000000000000000000000000000000000000000000000000000028
:4018C00000000000000000000000000000000000000000000000000000000000000000000000000000000000000000000000000000000000000000000000000000000000E8
:4019000000000000000000000000000000000000000000000000000000000000000000000000000000000000000000000000000000000000000000000000000000000000A7
:401940000000000000000000000000000000000000000000000000000000000000000000000000000000000000000000000000000000000000000000000000000000000067
:401980000000000000000000000000000000000000000000000000000000000000000000000000000000000000000000000000000000000000000000000000000000000027
:4019C00000000000000000000000000000000000000000000000000000000000000000000000000000000000000000000000000000000000000000000000000000000000E7
:401A000000000000000000000000000000000000000000000000000000000000000000000000000000000000000000000000000000000000000000000000000000000000A6
:401A40000000000000000000000000000000000000000000000000000000000000000000000000000000000000000000000000000000000000000000000000000000000066
:401A80000000000000000000000000000000000000000000000000000000000000000000000000000000000000000000000000000000000000000000000000000000000026
:401AC00000000000000000000000000000000000000000000000000000000000000000000000000000000000000000000000000000000000000000000000000000000000E6
:401B000000000000000000000000000000000000000000000000000000000000000000000000000000000000000000000000000000000000000000000000000000000000A5
:401B40000000000000000000000000000000000000000000000000000000000000000000000000000000000000000000000000000000000000000000000000000000000065
:401B80000000000000000000000000000000000000000000000000000000000000000000000000000000000000000000000000000000000000000000000000000000000025
:401BC00000000000000000000000000000000000000000000000000000000000000000000000000000000000000000000000000000000000000000000000000000000000E5
:401C0000002000205DC800004DC800004DC8000000000000000000000000000000000000000000000000000000000000000000000000000000000000000000000000000015
:401C40000000000000000000000000000000000000000000000000000000000000000000000000000000000000000000000000000000000000000000000000000000000064
:401C80000000000000000000000000000000000000000000000000000000000000000000000000000000000000000000000000000000000000000000000000000000000024
:401CC00000000000000000000000000000000000000000000000000000000000000000000000000000000000000000000000000000000000000000000000000000000000E4
:401D000059430205001300049946B40401000100000204000000000000000000000000000402140018020C0024020C0030021700000000000000000000000000000000008F
:401D400001010200000000050002830000070101000001000000000000000000000000002C91010AC8D0020000000000000000000000000000000000000000000000000069
:401D800000000000000000000000000000000000000000000000000000000000000000000000000000000000060A010732283200FF00000000000000000000000000000080
:401DC0000000000000000000000000000000000000000000000000000001480298029A0200009C029E02A002A202A402000000000000000000000000000000000000000038
:401E000000000000000000000000000000000000000000000000000000000000000000000000000000000000000000000000000000000000000000000000000000000000A2
:401E40000000000000000000000000000000000000000000000000000000000000000000000000000000000000000000000000000000000000000000000000000000000062
:401E80000000000000000000000000000000000000000000000000000000000000000000000000000000000000000000000000000000000000000000000000000000000022
:401EC00000000000000000000000000000000000000000000000000000000000000000000000000000000000000000000000000000000000000000000000000000000000E2
:401F0000B40440F614000000418000FFB404000400000000000040F60C000000428000FF0000B4040C0000004380B40401000000B40440F6000000000000000300000000EF
:401F40000000000000000000050F50000307100200000000141004000000000000000000000000000000000030100D07010000000000000000000000000000000000000064
:401F80000000000000000000000000000000000010010000B4040108020302030203020302030203020300000000000000000000000000000000000000000000000000002C
:401FC00000000000000000000000000000000000000000000000000000000000000000000000000000000000000000000000000000000000000000000000000000000000E1
:4020000000000000000000000000000000000000000000000000000000000000000000000000000000000000000000000000000000000000000000000000000000000000A0
:402040000000000000000000000000000000000000000000000000000000000000000000000000000000000000000000000000000000000000000000000000000000000060
:402080000000000000000000000000000000000000000000000000000000000000000000000000000000000000000000000000000000000000000000000000000000000020
:4020C00000000000000000000000000000000000000000000000000000000000000000000000000000000000000000000000000000000000000000000000000000000000E0
:402100004170506C45694E630000000000000000510001010000000000000000000000000100023061700051AD11041D00000000000000000000000000000000000000004C
:40214000F0B503AF85B072B635480821016055204004344908603448DD210160FF2000043249086032480121049101600B46362181600221039181612E481C2101602E49E6
:402180008160142181612D49302008602C4A8A605A02CA602B4908602B4A8A602B4912220A600AF07DFC4F2000022949086042222848024328490A602F2212020292FC25FA
:4021C000264E7251412303430B60032201921202234B5A510246049C22430A60F825029A725140240294024622430A6000225A510860049C250375600546019C25430D60DB
:4022000005252D023560039D28430860154802600298D8609A605C601D6005B0F0BDC04600000240000102400002024000030240000004400001044001EC00000002044047
:40224000361001000003044040410200300010400803014000FF0080000001400802014008010140280003400000000000000000801C800804D000BF401EFDD100BF00BF60
:4022800000BF7047EFF3108072B6704780F31088704710B5002A09D0884207D003460C781C705B1C491C521E002AF8D110BD10B5884209D0002A07D003460C781C705B1C8E
:4022C000491C521E002AF8D110BD002A05D0034619705B1C521E002AFAD17047002A05D0034619705B1C521E002AFAD17047F0B581B003780022002B1CD00092441CBF2026
:402300001D18EEB21D4620351A2E00D31D460E783718FAB2374620371A2A00D33746BD4207D1621C2378491C002B1446E8D1009A00E01A460878D1B2081A01B0F0BD014672
:402340000A780020002A05D0491C00200A5C401C002AFBD17047C046B0B502AF124813490A1A0321CB431249C91C194004242346FFF79DFF0F4810490A1A00252946234613
:40238000FFF7ACFF0D480E490A1A29462346FFF7A5FF0C480C49091A202200F017F80AF069FA03F0CFF9FEE7A000002088040020D4E50000000500206C1500200005002020
:4023C0006C1500206C150020001C002070B5104C002323600F4C23600F4C23600F4C2260636085186E1E55423540A5606B60AB604018401C801A401BE860A918296001216F
:40240000E1612362636223616361A061E56070BD0005002004050020080500200C050020B0B502AF0C460546E81701466940081AE1170A466240511A00F006F86C40E117FE
:402440004840401AB0BDC046F0B50022002861D000295FD0202300291C461AD04C080C43A50825432C092C43250A25432C0C2C43E4436508284E2E40A41B284DA6082C4077
:402480002E40A41925096419254D2540254C6C43240E00281AD0430803439D081D432B092B431D0A1D432B0C2B43DB435D081A4E2E409B1B194D9E082B402E409B191D09D9
:4024C0005B19174D1D40174B6B431B0EE51A1F2D20D801D102461DE01F22561B0246B2406E1C0025002E13D0F0405B1E1B1B4C1E0025D60F40003043261AF61737460F4049
:40250000C01B52002A43012535405B1C002BF0D152002A431046F0BD55555555333333330F0F0F0F01010101B0B502AF0C460546FFF78AFF6043281AB0BDC046F0B503AF00
:4025400081B004467C206043184B1B18A000184D28580125002800D1054634269D555A671D4674358E89002817D00520002E1BD0782000221A54196101255D701A67204623
:4025800001F00CFFA221405C002800D10546204600F024FE5721455405E00520002E03D12A6002201867072001B0F0BD3405002034080020F0B581B07C21414314484218D5
:4025C000106F012100281ED0012808461CD034200090145C002C084616D0156A2432002608460F46B7403D4209D0B700D7593B68012B03D1009BFB5C002B00D00020761CF7
:40260000A642EED300E00020084001B0F0BDC046340500207047704780B500AF7C224243044B9A18126F1201034B9A1889005158884780BD34050020ACD600000146034B34
:4026400001200022994200D010467047AC05000080B500AF0021CB434022FFF73FFE80BD7C214143014840183830704734050020F0B503AF8DB00A908A681C2313400026B7
:40268000042B00D2CDE009917C2108914143684A079253188100674A51580124002900D10C46069434229C54002900D1B9E01F210291C94303910121019109040C910022B0
:4026C000594904910899414307984018D1B289004418656A2434002D18D069690B91099883681E464E402846143029460C9DAE4212D205901E0A072030404E7C86420D4620
:4027000024D02D20285C002808D01FE00998836814200590016802E005900D460B99184648400C9CA04209D22C24049E30461A300340B34202D1285D002868D1521CD0B2CB
:402740000026069988420A98BCD36AE0AA8D0026FF2002420B9964D00C922F2000262E5403980140099A9368029803400B436B615078FF30242168549168029A0A4028466C
:4027800024300B90062A0BD10C98000A002807D0264803400498401F014019430598016009984078022811D3297C491C88420DD8800003990A181C32A869099B0C33002169
:4027C000C9430C9119460C9BFFF771FD206801210160A96A0A9888470A982168096805291FD00B9E31784C1C00F0F8FC482144543078002814D00A9800F0F0FCA9693278F1
:40280000039B1F3330309200FFF751FD08E0039801400720084305990860A96A0A988847019E30460DB0F0BD05070000FFF8FFFF3405002034080020F0B503AF85B004915C
:4028400003907C2141433B4A511834200B5C0020002B17D00024E0B280000E18756A2436002D0AD06A69049880684240120C002A03D12C22AA5C002A06D1641CE2B20020AF
:402880009A42E8D305B0F0BD2863049A5078FF30242168542846243002900320C4435078134602280CD3297C491C884208D880000219A86919460C310023DB43FFF7F7FC30
:4028C000009430680121019101602F2004902954A96A039C204688470721204609F0E2FD002004996854316809680529CAD0286B04902646304600F071FC0499C162029CDB
:402900002078401C0490304600F068FC4821049A4254207800280AD0304600F05FFCA9692278009BDB1C30309200FFF7C0FC0198A8E7C04634050020F0B503AF83B00290C8
:402940007C22424331498C18072565607820205C21461031019126467836216901E0401C3070C2B252008A189289002A22D0254B9A42F4D10298820025498A5801211140C7
:40298000214A0A43A26600210091E166224668320625294602F0AEFE606F01990968327852008918898981800321817000998171018024E00195A069052500281FD0029EF5
:4029C000B000134908580125284008210143A1660020E066224668320621304602F08AFE304600F0FBFB5721405C002801D0256704E0304600F072FB02202067019D284689
:402A000003B0F0BDAC0500000C00AC053405002034080020F0B503AF8DB00B907C2343436A4CE1180A910846743009904A6F1588FF200890054200D0A9E00595069407936F
:402A4000342003900C5C08460A913430029096880C9200215A4A0B46591C95B2AE4202D0D8B2A042F7D9D8B2FF280A990C98079B069C059E00D18AE00122E254431C300A90
:402A8000002801D10C9A7FE00192084618300090084614300490881C079008460C300690002426460C9AA0001018C068069A10600B9801F06DF80C90079800780899884290
:402AC00059D0049A1168002901D0002111600C99002950D00C99C8743D48059001883D4802F06AFD0598008836494118022902D33549884202D10C994E7402E0601C0C9938
:402B000048740B98800108180399415C3430002901D0002101700B9880002F490858002829D002980078002825D007990B78099909688A880021AA42019C224600D00A46A7
:402B4000022B234600D00B461A40002A04D1491CCBB28342F9D30EE0C8B2089988420AD081000A9A51180C9A4A6201218140009A10680843106009980268531C761CF4B2E3
:402B8000507884420A998ED34868072806D178200A5C521C0A5407200DB0F0BD0869144678228A5C520080188089A080012020700320A0700020A07118700620ECE7C04678
:402BC000AC050000ECEFFFFF901300003405002078040020CCDD0000340800207C214143034840187821425C521C42540720704734050020F0B503AF85B005467C20019074
:402C000068431E49081804903430039000241C480290E0B2800004990E18706A243600281CD0A900029A535801210422002B00D0114601601F21C94342690A4005211143FA
:402C400041613068816A284688470E4802F0B4FC30680021CB434022FFF740FB03980078641CE1B28142D4D90021CB430498019AFFF734FB052005B0F0BDC0463405002099
:402C800034080020DDDD000007207047F0B503AF8BB007907C2242435849891834200590085C0A463432099207220692002800D19FE0089108466C3003900846683002902D
:402CC00008467030009008461C30019020310A9100220720069014460126314691400A98006808427ED09200089B9A18556A2A68521E062A76D8920001A3D2589746C0468C
:402D0000262D0000E42D00001C2D00001C2D0000E42D00006A2D0000742D0000A868032852D1012256E00598285C29463431002858D007988200049131498B583340696900
:402D40002D4A0A40E97C09021143194318220A43A96B029B1A60039A116006211A4602F0C9FC0020049908703CE0A96A07988847072036E0079A9200214B9A580723069311
:402D8000002A2FD088430A9A1060002204922A60019B1A680A431A60002823D1079D284600F01CFA5821049A4254284600F016FA5721405C002804D1079800F08FF9002845
:402DC00010D1009806600DE0E868032801D1022200E000220798294600F0ACF90420286006200690641CE2B209980078824200D272E706980BB0F0BD0000FFFF3405002010
:402E000034080020F0B503AF8DB004907C2242437B498B18059334200290185C194634310B9107210991002800D1E1E018466C3001901846683000901846743008901846AD
:402E400020300A9000250720099003952C4652E007980068816A072000290C9D25D009900498884741E0099288780428039D0BD1049800F0B3F95821069A42542C20325446
:402E80000898006880780225052803D12C200021315403250298315C30463430002906D0B26B002101700C2505E009901DE00020002D0C9A1BD00C920395049882005149A9
:402EC0008B5806990B4071694C4A0A406900C9B21143F27C15020D431D43009A156001990C9D0D60062102F005FC059B7AE00390059B154676E0E0B20126314681400A9A92
:402F000012680A426ED031460C9580001A18556A24322868042864D10792089B186800788000281841602F202A5C186806780996002A03D006918168296310E0C80306915B
:402F40006A6902436A612C49114007221202184603689B791B0213400B436B61034609982E4619684B78002B17D08200B218054690691832002810D0701924214354089D64
:402F800029684B78307C834207D810680C319A000023DB43FFF78BF929680878002804D0F068032811D1022214E007980068826A002A03D004989047089801688868072254
:402FC000002800D14FE709920AE07068032800D03EE700220498314600F0ACF806200990059B0C9D0B980078641CE1B2814282D309980DB0F0BDC046FFF8FFFF0000FFFF0A
:403000003405002034080020F0B503AF89B07C22424330498A183421515C134634330893002952D0069211466C3103911146683102911146743101912032079200240921FB
:403040000491E2B201210B469340079D2D681D4235D00546920006988218566A3268042A2CD10198026812789200B218052305935360026812780820002A00D00498049008
:403080004000C0B27269124B1340F27C12021A430243A800104B185808401043029A10600020039908600621284602F023FB05983060B16A002901D028468847284608993E
:4030C0000978641CE2B28A42BBD3072009B0F0BD0000FFFF3405002034080020F0B581B07C21414311484418002020623421625C214620310091002A16D0A169E069C4438D
:4031000000260B4D01200746B7400B463B40234205D10835761C00209642F3D304E02988002901D000990F6001B0F0BD34050020A8D60000F0B503AF81B02F23CE5C7C23A9
:4031400043432548C518686F74350024E343002E13D00E6B866028680270447094000C19A469002C36D0891824228A5C2431002A30D042700C30097828E084604D691F26F5
:40318000354085700270CD8A858044704C7C84714C692640062E07D12D254D5D002D03D0240A072525408571002A01D08C7C847194000C19A469002C0CD0891824228A5CFB
:4031C0002431002A06D0427009780C308A002146FFF76DF801B0F0BD3405002060214143014840187047C046B005002080B500AF60214143044A51185422895C002901D0DB
:4032000008F0BEFF012080BDB0050020D0B502AF0024204608F094FF012803D10020FFF7F9F901242046D0BDF0B503AF81B014460D46691E0646192900D98CE0890001A283
:4032400089588F46AC320000CE320000AC320000BE320000BE320000563300005633000056330000AC320000AC3200005633000056330000E6320000563300005633000069
:40328000F4320000AC3200005633000056330000AC32000006330000563300005633000056330000AC32000048330000304609F001F900F031F92D48002181554BE0602152
:4032C00041432848401855210122425440E060214143244840185921002242542248816E491C816637E02068032834D1304609F0E1F825E0602141431A4840185C21405C9F
:4033000000282DD127E01849CA6E521CCA6660214843144A0092101856230022C254606802220243032A16D1B000114A1058002806D07143009840185921405C00280AD1E1
:40334000304608F0D7FE06E0602141430548401859210022425430462946224602F0CAF901B0F0BDB00500209C100020E10F00203408002060214143014840180830704746
:40338000B005002080B500AF00F026F807F07CF909F09AFC002805D007F05AF9012000F027FF04E0002000F023FF07F039F9074802F002F90648074902F0FEF806F0A6FE32
:4033C00007F042FB00F096F880BDC046F5DD00000ADE000000210000D0B502AF0024204609F086FC2046214601F044FD4921204607F01CFD002801D105F0E6FF012009F0F5
:4034000057FC02480C210160D0BDC0466C040020D0B502AFFEF736FF0446FFF7F7FE01281ED101F027F800281FD007F01DFD01F091FD012801D105F083FF19480068FF217F
:403440000842FAD109F070FD50201649085A4B218900884201D0B4280CD10AF0C9F80BE02046FEF713FF002417E02046FEF70EFF00240FE00AF0CCF809F066FD01F06AFD3C
:40348000012801D105F070FF2046FEF7FFFE01F015F801240020FFF7BEF82046D0BDC04608020840B0050020F0B503AF81B000920D4606460024214605F01AFD3046214619
:4034C0002A46009B05F0C0FB034630462146224605F0F0FB01B0F0BDC046704780B500AF05F060FF05F070FF01480C21016080BD6C040020D0B502AF064C2068303008F0E0
:4035000005FD2068B03001F0E9FA2068C03008F035FDD0BD9002002080B500AF034815210170034802F048F880BDC0469802002014DE000080B500AF0146034801700348F8
:4035400002F03AF880BDC0469802002014DE0000F0B503AF89B001920D46044602A800261C223146FEF7B1FE36480090022C08D0012C0CD0002C344616D136484619D024D4
:4035800008E03648461900F073F8E82402E0324846193424002E07D0019918290DD84819A04223D90E4605E02E482946324602F003F8019E142E06D900E00E462A48294670
:4035C000324601F0F9FF7219A24204D927482946234601F0F1FF0098203002900120C2B2002002A900F030FC09B0F0BD1F2080010C46A10101400098014302911248284074
:4036000003901748018811480A1802A8001D022A02D30F4A91420AD1182331462246FEF746FE1420182C214609D0084607E002A80830142331462246FEF739FE2046800873
:40364000801CCCE70200AC05FF7F0000ECEFFFFF90130000A400002074010020A80100207804002022DE00003DDE00006CDE000010B51C4800680521C1664167C1678422D7
:4036800081508C22815018494A689423C2508A689C23C250CA68A423C2505A228A5AD3B2B4240351120ABC23C2500A694B699A188B69D218C423C2508A6ACB6A9A180B6BF1
:4036C000D218CC23C250CA690B6A9A184B6AD218D423C2504A6EDC23C250896EE422815010BDC046940200209C100020F0B503AF87B0494D2A780492172A00D281E00F22F0
:40370000530486011E40030C04071C4334431F2300935B05C6031E40264303239B0684051C40344301231B043C4E0391294635681D40254335600C460399CB0E0E261E4055
:403740000240314B314D0195314D052A59D80294920001A41259974670370000743700009A370000AE370000D8370000EC37000015212BE01840019A104305900D40069546
:4037800000200C4605A9032200F05EFB700825490870254804701B2118E01E4A11408209009802407008C0B2FFF7D2FE29E01840019A1043059029400691002005A9032263
:4037C00000F042FB700817490870192102980170134801F0F1FE14E0192102980170104801F0EAFE0F48FF2101700AE004981728029806D119210170094801F0DDFE00F08C
:40380000ABFA07B0F0BDC046FF0700000000AC05FF7F0077FF7F0000980200203406002014DE0000990200209A020020F0B503AF91B004460F204104A2010A40210C230738
:403840000B4313431F2105914A050792E103069111401943032293060993A2051A40114301230A931B04734D08952E681E400E432E60910E022900D1D7E02040401E0328C4
:4038800000D9D2E0800001A2805887469C3800004C39000064390000A0390000664A1078012902D1002800D1BFE0644B1978002800D0A1E01B2900D09EE061480178302953
:4038C00004D0C02902D0602900D0AEE000910190029303920BA80026182204923146FEF7F4FC0798069901421AD0A00905990840544907910A9A0BAB9B19D4B2A4000799FA
:403900000959049D0C46EC401C702C46083C5B1C002D2546F6D1521C311DCEB28642EAD30098C02847D06028039D54D0302857D10BAC204601F064F8434800680021CB433E
:40394000303018222146FEF7B2FC49E001296CD13A4800781A2868D137480078022864D13C4860E0354C207819285ED1324D287801280AD101F0E6F83548002101701A21BF
:403980002170324801F018FE287802284DD13248274901602F48002101701A21217006E025480078022840D1244819210170274801F002FE39E00BAC00252573204608F085
:4039C00013FB21480068EB43C0300C222146FEF76EFC039D04E01C480068603001F041FDFF202870019908701921029C2170174801F0E2FD287821781A2916D1012814D1F5
:403A000008980068099908400A998906002488420BD10C4DA000281801F09AF8A01CC4B2062CF7D30A480021017011B0F0BDC046DB030000340600209902002098020020A9
:403A40009A020020100600209002002014DE000030060020310600209C020020F0B503AF8BB0424D28781A2878D1414C207801210391012808D13F4E307800286ED100F090
:403A8000B5F9039830702078022867D104A800241C222146FEF719FC3748017800295DD103990170354B18682D490A461C3290423DD201932B4A0492884203D1284830492D
:403AC00000F052FF2F480390056804A8001D2E4902910E78782E32D129796A7912020A43A979EB791B020B4319041143AA78EB782E786D784160290231431B0213431A04E3
:403B00000A4302601848049004A90322204600F09BF901990868401C086080B2184D294600F022FF039805600298047016E000F075F919212970154801F03EFD0EE018225B
:403B40002946FEF7A6FB183503980560183602980670002004A9072200F076F90BB0F0BDDB0300000206AC050202AC05980200209902002030060020310600209C020020AC
:403B800080130020A00000203206002014DE0000F0B503AF83B00E460146F068401E0025012821D8307801281ED16C244C4310480190051928460291FEF74AFD0220B070C1
:403BC0000721716071613169A966642100226A542E2101226A54082129742D216A5401990851029800F006F8284603B0F0BDC04638060020F0B503AF89B06C214143524A00
:403C0000555856182F23F35C34462F340394002B3ED00695316B05910F200840306401203060706C0490F06C4A49089188603046403001903046303002904320C0430790D6
:403C400044243546291908980019079A80180026F3430422FEF72BFB241D642CF2D10498C1B20598FFF7E2FD0698042869D10298006830210140102963D10198006801284C
:403C800003D0022801D005285BD10398067058E06B1E062B55D89B0001A41B599F46C046BC3C0000D23C0000423D0000FA3C0000283D0000423D0000383D000070691F23DF
:403CC0000340062B3DD15018816C406CFFF70EFD37E0314644313246643200239C00341903256560A1615B1C1478A342F6D91749B1621749F16304211FE071691F220A40CD
:403D000032640121316033464033052A11D0042A17D105221A60039A1170002100F02CF81720FFF707FC0CE0306C052801D0042807D10720306004E005213164002100F013
:403D40001BF809B0F0BDC04638060020F53B0000A53E00001006002080B500AF0548052101642F21012242540020014600F004F880BDC04638060020B0B56C2242431A488A
:403D80008018026C002A2BD02F23C45C154B002C11D0002903D10F210A401A430263011D0246643200239D0003244C515B1C1578AB42F8D913E01F21114019434161052ACD
:403DC00002D1242100224254011D0246643200239D0003244C515B1C1578AB42F8D90460B0BDC0460000AC053806002080B500AF2F20094A012111541F20C002136B0340FC
:403E0000044818431063926900201060FFF7B4FF80BDC0460106AC053806002080B500AF2F20084A01211154106B044B03400448184310630020FFF79FFF80BDC0FF0000F8
:403E40000400AC0538060020F0B503AF83B00346002920D06C2402946343114C0194E3180E681E63022A0BD34433091D0026B5004C595C51741CB51CEDB295422646F6D1B5
:403E800002994143019B5B18FF3224215A542F220121995400E00021FFF76EFF03B0F0BD380600200020704780B500AFFFF796F95A2200218154084605F0C6F805F0F0FA9C
:403EC00080BD7047704780B500AF0020FFF786F95021415A522281520168002901D00020884780BD80B500AF012005F0ADFF80BD80B500AF022005F0A7FF80BD80B500AF17
:403F0000032005F0A1FF80BDF0B503AF81B00E46FFF764F905465024FEF7B4F900902E531748314601F048FB285B50351349884205DC642811D0B4280BD1042016E04B2127
:403F4000890088420FD019210901884201D106200CE064202880002008E005F013FC012803D8022002E0052000E0032005F016FC0098FEF78BF901B0F0BDC0462B0100000D
:403F8000A6DE00007047F0B503AF81B00D460646FFF724F90446FEF775F90090304600F0B7FABA21405C00281DD005F0EBFB012802D1022005F0F2FB002D0FD05020225AD9
:403FC0005220235A01200021934200D908465D2160543046FFF702F9056004E03046FFF7FDF8002101600098FEF750F901B0F0BDF0B503AF83B001910546FFF7EFF806460B
:40400000FEF740F902900020009005F0C7FB102428462146FFF778FF52203452019C002C08D0284600F074FABA21405C002801D0346001E0009830600298FEF727F903B00F
:40404000F0BDC046D0B502AF0024204605F02AF901480470D0BDC046B10A002080B500AF024900220A7000F059FF80BDB00A0020B0B502AF0546104C06F076FB01280FD034
:4040800006F072FB02280BD10D4800684179807900020843C1018031621C062091420AD32D780649204607F0B7FF0146002006228D4200D01046B0BD8004010080E800002E
:4040C000A8020020F0B503AFA7B007AD002180222846FEF7FAF840353D4806903D4C06F043FB01280CD1601C04903C48006802903B4A0320059038493A483B4B03940FE04F
:4041000038480168029148798979090201430391A01C0490344A022005903048304B21461268947DD27D120222431E680368069884B2A24206D188B201951D4600F0DEFBAF
:404140002B46019DB07DF17D09020143A1420CD13046FFF78DFF002816D0049880B200F0CDFB039800F0CAFB04E01846FFF780FF002807D00598C0B2012181401B48027825
:404180000A43027027B0F0BD4022284631461346FEF78DF8069A0932562007A90A52029B187F5A7F12020243987FDB7F1B02034318041043401C1E90049880B208F082FB4F
:4041C0000028DFD1039800F099FB08F031FDD9E750430000FD030000FF010000A4020020A8060020A8020020A0020020A406002010490A68104B00280DD01A400A60086806
:40420000012202430A604868202202434A600868402202430BE0581C02430A604020C04302463F320B6813400B600A6802400A607047C046F0010A40FFFFFF7FF0B503AF70
:4042400081B016460D4604460020002C26D00090306800280FD008362968FEF748F8002805D10021C8438200B358002B0FD170680C360028F0D10A4801F09EF9296809481E
:4042800001F09AF9084801F097F9009806E02018012C00DC08463268291D984701B0F0BDB3DE0000C5DE0000C8DE0000F0B503AF99B00191014609A80590403000900026C0
:4042C00002962748049003E00299491C02910146B000002939D00A780025002A21D008950394049B1858441C0794057806950846D3B2EDB29D420ED0631C2578002D1C4692
:40430000F6D14278401C002A079C069DF0D1089D2846039C06E000230370401C1446089D00E02846059A1160E3B20122222B00D02A465640097800290146C9D00599091D5F
:404340000591009A9142BFD302E000200599086009A90298019AFFF771FF19B0F0BDC046ECD60000B0B502AF14460A4801F024F9216800290BD00C34074D08782A2802D080
:40438000284601F019F921680C340029F5D10020B0BDC046D0DE0000E5DE0000F02141430148401820307047001D0000B0B502AF0224002823D1002921D043208000114DC3
:4043C00028182122D200A850FC20295000242046FFF7E4FF01463120C300203166222846FDF765FF2878022800D06870204607F05BF8204602F062FCBB20012129542046C6
:40440000B0BDC046AC060020D0B502AFBB210224002810D10948415C00290CD0C17C0C24002908D1BC2100244454BA2101224254204607F042F82046D0BDC046AC06002005
:40444000B0B502AFBB21022400280FD1084D685C00280BD00024204607F057F8204602F0A9FCBA202C54BC20012129542046B0BDAC060020F0B503AF81B0BA260E4DA85DF1
:404480000121002814D000910024204607F088F800280ED10024204602F0D6FC002808D1A85D002802D0002007F0C6F8009C00E00C46204601B0F0BDAC06002080B500AFCA
:4044C00007F0BFF8012080BDD0B502AF0224002819D1BA210D48415C002907D00024204607F000F9204602F00DFD0CE0BC21425C0024012A07D100244454204607F005F8F5
:40450000204602F057FC2046D0BDC046AC0600203121C9004143014840187047AC060020F0B503AF81B004460720002C3BD1BA201E4D285C0B26002834D0B82000902C5CF5
:404540000F20002C2FD1E8202858052805D00A2828D1AC202858002804E0A820002921D12858062830461ED1012600982E54B420295030022B50002A09D02120C00028581E
:404580000021CB43302411462246FDF790FEFDF779FEF0216A58730213436B50FDF776FE002000E0304601B0F0BDC046AC060020B0B502AF0C463121C900414305484518AE
:4045C000FDF760FEF0216A5822436A50FDF75EFEB0BDC046AC060020D0B502AF04460720002C08D1E420044C24580F20002C02D10020FFF795FFD0BDAC060020B0B502AF19
:4046000003460720002B1BD1BA200E4C235C0B20002B15D0B925635D0F20002B10D1C0202150412080002250FDF72CFEF4216258402313436350FDF729FE0120605500201E
:40464000B0BDC046AC060020B0B502AF0C463121C900414305484518FDF714FEF4216A5822436A50FDF712FEB0BDC046AC06002010B50246080F072303400220002A20D131
:404680000C20002B1DD095240F4A145DA34218D8980080182722D20082580A48024003239B06194207D08B0A03400C2000219A4207D3084610BD01400C2000238A4200D387
:4046C000184610BDFF030000AC0600203121C9004143014840187047AC060020F0B503AF8BB03121C90041434B4844180394A07A21460A310991617A2246093208920022AB
:4047000000296BD0454A128804923E4B069315461D40029523462033079352000192002602460A960123B3401A4251D0B00007990D58A80F344A02280DD00592012815D072
:40474000002811D12946069801400498814222D92F48054006E02846069908400499884202D9154002980543294625E0284606990840AC0A0C402146FDF766FE40080499A8
:40478000884217D905980540019844430698411E214029430FE0032000050542E4D06E2048436421FDF750FE18492940049A9042DAD901E02946039C0A9B980020184F22BF
:4047C000920081505B1C0A930998007808990978C2B2761CCBB29E42A4D301E00A9202460120C10612050A404F21890063582546084C1C4014436C5095210A9A6A540BB06A
:40480000F0BDC046FF03000000FCFFFFFFFFCFFF00FCCFFFFFFFFFF7AC060020AC02002080B500AF3121C9004143044A51182B22D2008958FFF71CFF80BDC046AC0600203F
:40484000F0B503AF81B00C460546FDF71BFD21680026002D0CD000260122114204D1761C4908AE42F8D303E0B240216891432160FDF70CFDF0B201B0F0BDC046B0B502AF74
:404880000C463121C900414305484518FDF7FAFCF0216A58A2436A50FDF7F8FCB0BDC046AC060020B0B502AF0C463121C900414305484518FDF7E6FCF4216A58A2436A50D7
:4048C000FDF7E4FCB0BDC046AC06002010B50C460443A40A002C05D1044C208004480180044802800448038010BDC0463A080020AE020020B0020020B2020020B0B502AF76
:40490000A0B004466D46002180222846FDF7DDFC2046294607F0D6FF01460520002900D1084620B0B0BDC046B0B502AF0C4A12780E24002A11D0072400290ED0820A002A79
:404940000BD1084A1288824207D2C5010024E343802208462946FDF7AAFC2046B0BDC04638080020B2020020B0B502AFC5010024E343802208462946FDF799FC2046B0BDDB
:4049800080B500AF07F09EFF01460520002900D1084680BDB0B502AFA0B004466D46002180222846FDF791FC2046294607F08AFF01460520002900D1084620B0B0BDC0462D
:4049C000F0B503AF81B0C1010026F343094C80222046FDF76CFC084D2168284600F0ECFD241D761CF0B22028F6D3044800F0E4FD01B0F0BD80130020EBDE0000C8DE000010
:404A0000F0B503AF81B004467F26B1020020C3430E4D80222846FDF74AFC2878002802D00B4800F0C9FD002C03D00A48214600F0C3FD064D112228462146FDF72AFCF00011
:404A4000294607F03FFF01B0F0BDC04680130020EFDE000003DF0000F0B503AF83B07F20029081020025EC43164E0196802230462346FDF71CFC707C002803D0124800F081
:404A80009BFD1DE00198113010491422FDF701FC0F4800F091FD0F4E204668430199095C304600F089FD2D190298C0438542F3D1094800F081FD0298C000024907F002FF0F
:404AC00003B0F0BD801300200CDF00003C08002028DF000032DF0000C8DE0000F0B503AF83B00646002002901C24134D13480190FC2020402A69C2400F21114009290BD8DB
:404B000030200143002E04D0029AD0B23154521C0292019800F050FD201F002C0446E7D1002E06D00298C0B200213154044800F043FD03B0F0BDC0460021000032DF00002D
:404B4000C8DE00000148002101607047A80A0020F0B503AF87B0054601200402884A106884490691844B062800D9B6E0800001A140588746904B0000AE4B0000264C000054
:404B8000DA4C0000DA4C0000E24C00009C4C00000120106005927C48784901807B48002101707B48017077497A48086002E00592744800680026F443082229462346FDF702
:404BC00076FB7248017822467243AA5CC9B28918017036190722D2439642F4D1694D2868083028606A4C217808312170664E3088C9B280290AD167490491FFF7C1FE002093
:404C00002070049828603088401C3080069989B280B20026884200D8A8E05F48286000262670052096E00394049305925E4C029420885E49019108180026F343082229461F
:404C4000FDF735FB208808302080FF2109020140080A002800D189E04E4D802200922846019C2146FDF715FB069E3046223080B22946FFF785FE803428462146009AFDF7CE
:404C800008FB2336B0B22946FFF77AFE002002990880062005990860049B039C04933B480078211A434800F087FC3A49084640303A4A78CA78C078CA78C00698253080B203
:404CC000FFF75EFE3C4800F077FC0A2007F0BEFF049800F011FD002648E0002010600C2644E0039404930592264C20680026F34308222946FDF7DBFA2068083020602448A6
:404D00000178083101708020084080282ED302940698213080B2204C2146FFF731FE1F4D28464ECC4EC04ECC4EC029781C4800F043FC164800780399081A297881420CD1DD
:404D4000184800F039FC18480026068017480299086002200599086008E0154800F02CFC002605980660049800F0C6FC304607B0F0BDC046D903000031420000090200000A
:404D8000A80A0020B402002082090020840900208009002080080020000900208809002035DF000043DF0000AC0A0020A809002056DF000067DF000071DF00000F230340AB
:404DC00001229A400009C0B28000012904D1054908580168114303E0024908580168914301607047F4D6000001460F220A40012003469340FF22920089081140034A51581A
:404E000049681940002900D108467047F4D600000948006809490968FF221204084B1B681B041340C0B2090289B201431943054800680006084370470400044004010440FE
:404E4000040204400403044010B50F23034003225A4307239340FF24A40080082040044C205884689C4391402143816010BDC046F4D6000010B583003C221A400F239340AA
:404E8000FF24A40080082040034C205804689C4391402143016010BD08D70000F0B503AF83B01546029106461946FFF787FF0F2001903146014003224A4307239340FF2109
:404EC0008800B10801400B484458A068984395400543A560B0003C220240019B93400648405801689943029B93400B43036003B0F0BDC046F4D6000008D7000080B500AF3E
:404F0000054801210160422141604121816010200621FFF7AFFF80BD20010140B0B502AF04460125284604F085F9A000024900220A502846B0BDC046B40A002080B500AF50
:404F40008100034A5158002900D0884780BDC046B40A0020014800787047C046B00A0020D0B502AF82B00024002900D15AE1C24A1160C24901240C70AC4A904220DDAC4AD4
:404F800090423BDDAB4A904270DDAB4A904200D1C4E0AA4A904200D1D0E0A94A904200D03EE10A216846016012200323224604F0BDF8B34828210180B84800F0FDFA31E15B
:404FC000A64A904236DCA94A904267DCA94A904200D1C3E0AF22D200904200D020E10A21684601601F200323224604F09FF8A44864210180A34800F0DFFA13E1934A90427B
:405000005BDC954A904200D1AEE04B225201904200D005E10A20694608601B2026210323224604F083F8964846210180984800F0C3FAF7E08A4A904257DC8B4A904200D1A6
:40504000A2E00F22D201904200D0E9E00A20694608601B2004210323224604F067F8884846210180884800F0A7FADBE0754A904200D199E0744A904200D0D1E00A20694624
:4050800008601220032122460B4604F04FF87C4828210180804800F08FFAC3E0744A904200D191E073221201904200D0B8E00A20694608601F2036218BE0654A904200D184
:4050C0008FE0644A904200D0AAE00A2069460860162005210323224604F028F86848322101806C4800F068FA9CE07D221201904200D186E05B4A904200D091E00A206946D6
:4051000008601B200E210323224604F00FF85C48462101805D4800F04FFA83E00A2069460860122005210323224603F0FFFF5448282101805C4800F03FFA73E00A206946D0
:405140000860122006210323224603F0EFFF4C4828210180524800F02FFA63E00A20694608601F20002134E00A20694608601B201F210323224603F0D9FF41484621018070
:405180004B4800F019FA4DE00A20694608601B20032122460B4603F0C9FF394846210180454800F009FA3DE00A2069460860122002210323224603F0B9FF31482821018000
:4051C000384800F0F9F92DE00A20694608601F2034210323224603F0A9FF29486421018020E00A20694608601B202D210323224603F09CFF2248462101802C4800F0DCF95A
:4052000010E00A21684601601B200323224603F08DFF1B4846210180264800F0CDF901E000200870204602B0D0BDC046FB080000E30C00002E0D00002F0D0000480D0000AB
:40524000AC0D0000E40C0000FD0C0000C3090000C40900008C0A0000FC0800006B070000CF070000090800006C0700001B0700001C07000014050000B40A0020B00A002067
:40528000B20A002016E0000049E000005BE00000F4DF0000D2DF0000ACDF000079DF00008ADF00009BDF0000BFDF0000E3DF000005E0000027E0000038E00000C046F0B55F
:4052C00003AF81B000910446102000F025F805462046461E0024002D1AD0022818D30A2007F0B4FC1020009900F016F8054602202843022806D007F0D5FE012007F0A6FC5A
:4053000007F0B8FE641C002D02D0E0B2B042E6DB284601B0F0BDC046F0B503AF85B00D460646344B18780424102853D12B4A506E0824012108424DD10493144603910A20D4
:4053400007F062FC7000C0B2254E002D05D02521049A11700399084302E02421049A1170224601921F4908601F48306002200290906600244E213C221F4B204605F024FCAD
:405380001E4800783168194D294201D10028F9D04E21204605F0D4FC30680421084218D13068029908420C4613D130681021049A11703560019B19680D4A11401960511C7D
:4053C0001A680A431A60EC1F0399084202D00C4600E03560204605B0F0BDC04600000740000F0740400207401703000007010000FFFFFF7F44150020AD550000B80A0020EB
:40540000F0B503AF81B00C46009008F075F8214605464E1E0024002D20D002291ED30A2007F014FC05200021FFF749FF0546002D03D1009808F060F8054602202843022837
:4054400006D007F02FFE012007F000FC07F012FE641C002D02D0E0B2B042E0DB284601B0F0BDB0B502AF82B004460020207004F089F903281FD1002004F070F8E120050137
:4054800004F0CAFEA84216D807F0F4FD342002252946FFF7D9FC35202946FFF7D5FC002001AD294600F009F82878072801D10120207007F0F7FD02B0B0BDF0B503AF81B01E
:4054C0000C46054604F05EF9032818D1052000263146FFF7F4FE002810D1052100912846FFF78EFF00F00EF801210098FFF7E7FE002803D1284608F03DF80646267001B0A0
:40550000F0BDC046F0B503AF83B0254A107804242021084239D001921D4A0092506E800808210140102002900143916600204E213C221C4B05F048FB1B480078154E3168DF
:40554000154C214201D10028F8D000254E21284605F0F6FB3068029A104212D13168346001980270009B18680C4A10401860501C1A6802431A60113C0120014205D0044666
:4055800003E03460019802702C46204603B0F0BD00000740000F074011010000FFFFFF7F44150020AD550000B80A00200148012101707047B80A002083B0F0B503AF94B066
:4055C00019AC0EC419A9079100210191C9430491890008AA5518029502E007F0CDFC701C06463078252802D00028F6D17BE07178701C72292FDC632942D06429F0D10396FC
:405600000798011D079100680025049906900E460A210591FCF788FF049C21466943890008AA505006980599FCF70EFF31192D19069A092AEAD8002D049C029D50D02046E5
:405640007043800028582A49085C07F095FC761C002EF4D144E078291AD07329C0D10798011D07910168087800280FD04C1CC0B207F082FC611C207800280C46F7D105E0E7
:405680000798011D0791007807F076FCB01CA7E703960798011D07910068019C0F210140A20008AB99500009641C0028F6D101200442049E04D0A00008A900220A50641C16
:4056C000012C04D8A00008A900220A50641CA00028580749085C07F04FFCA419002CF6D10398801C7CE714B0F0BC01BC03B000471CD700007047C046D0B502AF044600207D
:405700000321064AFEF77AFF01460C20002903D1034804600120C043D0BDC04625570000BC0A002080B500AF72B60448006804490A6802430A6007F07BFA80BDBC0A002092
:4057400098000020F0B503AF81B03248132101603348C50B304E002D08D10124204604F0FDFFB1B26002721D92B213E0022004F0F5FF2C4800684179807900020843C1015D
:4057800040220A4328490A602449401881B2B01D82B230202F23FFF799F8FEF793FC0220014602F073F9FFF7A9FB05F0B7F962B6002003F0D3FEFDF7E5FD002D01D11B487F
:4057C00000E01B48FFF7F8FE00241A492046FEF7EDFD7D2002014A212046234605F0F4F901E0FDF715FE00242046FEF76DFE2046FDF7FCFC04F03AF806F05AFA204605F003
:40580000EBF8FEF72BF94A21204605F00FFB0028E9D1E6E730001040F9030000FFFF000020210000A8020020A80600206EE0000075E0000030D70000F0B503AF83B005461B
:40584000FEF744FF044609210191284605F078FA0120029001022846FFF710F8862000262654FC2020580368284601993246984728463146324601F0A9FAE820029921504A
:40588000E16E04200129024600D10A4698216250F021605003B0F0BD7047C046F0B503AF81B0044613204001604319490E182046FEF70CFF05468B208000315C491C3154D5
:4058C0003018C9B204290CD3032101708520285C012813D1E86E012810D1204601F0D8FB0FE0204601F07EFCE86E002802D1762001212954204601F0A5FF07E0204601F005
:40590000EBFB01210022204601F060FA01B0F0BDC00A0020F0B503AF81B00446FEF7D6FE0546FC20285803681121002620463246984703212046324601F048FA2046FEF7B2
:40594000C5FEB8214654012109024650E86E042101280A4600D1024698202A502046FEF727FE01B0F0BD80B500AF00210A4601F02DFA80BDB0B502AF0446FEF7A7FE054622
:40598000204601F02FFC28469430E96E012901D1012100E000210170A966A000084A115013204001604307490818972189000122425409211B22044B204605F005F9B0BDED
:4059C00034080020C00A00200D710000B0B502AF0446FEF77BFE05460921204605F0B0F9012001022046FEF749FF98200221295004212046FEF7DCFDB0BDC046F0B503AF5E
:405A000081B0044613204001604311490E1897208500701900902046FEF758FE715D00290FD00021009A1170FC21405802690949204690470921054A074B204605F0C4F8AB
:405A400002E0204601F024FB01B0F0BD71020000C00A0020A57100000D71000080B500AF0921024A024B05F0AFF880BDEE0200000D710000D0B502AF0446FEF727FE98213E
:405A80000322425004212046FEF792FDD0BDC046F0B503AF81B00446FEF718FE0546FC26A8594268642120469047A859C2680649204690470921034A044B204605F084F882
:405AC00001B0F0BD13010000A57100000D710000F0B503AF81B004460921009105F030F90120060220463146FEF7C8FE0221144A144B204605F068F82046FEF7E7FD05460F
:405B00002046009905F01CF920463146FEF7B6FE852000262E54FC20285803680A21204632469847E86E012804D1E82005212950A8202E5004212046FEF73AFD01B0F0BD44
:405B4000881300000D71000080B500AF01F0A0FA80BD80B500AF01F0C1FE80BDD0B502AF0446FEF7B3FD8921012242540021204602F0F4FD204601F0A7FE09213722024BD1
:405B8000204605F021F8D0BD0D710000D0B502AF044601F09EFE2046FEF798FD8921002242542046FFF748FED0BDC046F0B503AF83B00446132568016043134908180190AD
:405BC0002046FEF783FD02900E48002601990E540921204605F0B4F829012046FEF74EFE20463146324601F0F1F8E8200421029B1950A42001221A502046FEF7D9FC03B028
:405C0000F0BDC04637020000C00A0020B0B502AF04464021FEF732FE00252046294601F063FC0D222046294601F0BCFDB0BDC046F0B503AF81B004461320400160430E49FD
:405C40000E182046FEF742FD4B21C900002575507218FC2140580368122120469847032120462A4601F0B2F809211B22034B204604F0AAFF01B0F0BDC00A00200D71000010
:405C8000D0B502AF044600210A4601F09FF8204600F05AF8D0BDD0B502AF04460121002201F094F8204600F04FF8D0BDD0B502AF82B00446092105F043F801200102204635
:405CC000FEF7DCFD1320400160430A49085800216A46116008230A4601F0DCF8012803D1204601F065FA02E0204600F02DF802B0D0BDC046C00A0020B0B502AF0446FEF7F6
:405D0000E5FCFC21405803680F21002520462A469847022120462A4601F058F8204600F013F8B0BDB0B502AF04460025294601F0DBFB03222046294601F034FDB0BD80B5D7
:405D400000AF01F035FA80BDF0B503AF81B00546FEF7BCFC04460921284604F0F1FF0120009001022846FEF789FD842000262654B4202058052804D0002128460A4601F0D3
:405D800025F8E8200099215098202650F0200421215001B0F0BDC046F0B503AF81B0044613204001604314490E182046FEF78EFC05461048002131540E460921204604F00A
:405DC000BFFF012001022046FEF758FDB4202858062804D0002120460A4600F0F7FFE82004212950A4202E502046FEF7E1FB01B0F0BDC04637020000C00A0020F0B503AF01
:405E000081B00446FEF762FC0546762000212954132040016043164A16181248315412483154232000013152204601F039FB204601F02AFB204602F0B7FC0C48305C0128D0
:405E400006D1092137220B4B204604F0BDFE06E0A8200121295004212046FEF7A9FB01B0F0BDC0462D0200002E0200002F020000C00A00200D710000F0B503AF81B00446C2
:405E80001320400160430C490E180A4D701900902046FEF71BFC715D012905D10021009A1170A8210122425004212046FEF780FB01B0F0BD2F020000C00A0020B0B502AF5C
:405EC00082B00446FEF702FC05462046FEF706FC95202B5C4F20800028186946086000210122204601F084FC02B0B0BDD0B502AF044601F01FF909211B22024B204604F038
:405F000063FED0BD0D710000D0B502AF0446FEF7DDFB8421405C01280FD1132040016043104909180E4A8818895C002909D0002101702046FFF730FFD0BD204600F014F8E2
:405F4000D0BD2046FEF7C2FBE8210A224250AC210022425004212046FEF72AFBD0BDC04637020000C00A0020B0B502AF0446FEF7ADFB05460921204604F0E2FE0120010209
:405F80002046FEF77BFC8520285C002803D02046FFF702FFB0BD132040016043074908180549425C521C4254A8200221295004212046FEF7FDFAB0BD2D020000C00A002049
:405FC000F0B503AF81B00446FEF780FB05460921204604F0B5FE012631022046FEF74EFC1320400160430C49085869460E6000210423324600F04EFF012807D1A82003210B
:40600000295004212046FEF7D3FA02E02046FFF7C3FE01B0F0BDC046C00A0020D0B502AF0446FEF753FBFC21405803680F210022204698472046FFF787FED0BD80B500AF81
:4060400009216E22014B04F0BFFD80BD0D710000F0B503AF81B004461320460166432046FEF734FB054610488059012669460E6000210423324600F00DFF012811D109217F
:40608000204604F05DFE31022046FEF7F7FB204601F050F8A8200321295004212046FEF787FA01B0F0BDC046C00A0020B0B502AF04461320400160430B490D182046FEF70D
:4060C00005FB0849695C312907D8A8210122425004212046FEF76CFAB0BD204600F0FCFFB0BDC0462D020000C00A0020F0B503AF81B004461320450165430A4E701900903F
:406100002046FEF7E3FA715989682B22D200009B9950FC228058036A034A2046984701B0F0BDC046C00A002075710000F0B503AF81B0044613204001604329490E182046B9
:40614000FEF7C4FA05464720C0003058032806D1A820042129502046FEF72AFA3DE02B20C000305825210901705072188420285C00280ED000929520800036182046FEF7A3
:406180004FFB002813D0042030602046FFF7DCFD1CE09520800008213150A82006212950042120461646FEF703FA32460FE00020306006462046FEF789FAE8210A2242507D
:4061C000AC21465004212046FEF7F2F9009AFC202858036815212046984701B0F0BDC046C00A002080B500AF132149014143084A51180D2252018B580422012B00D01A46DF
:406200004723DB00CA50002101F0CCFA80BDC046C00A002080B500AF1321490141430A4A5118084BCA18C95C012905D100211170022201F0B7FA80BD09211C22034B04F0AE
:40624000C3FC80BD33020000C00A00200D710000B0B502AF0446032100252A4600F0B6FD2046FEF733FAB821455401210902455009211C22024B204604F0A6FCB0BDC046E9
:406280000D710000D0B502AF044600210A4600F09DFD2046FFF780FDD0BDD0B502AF04460121002200F092FD2046FFF775FDD0BDD0B502AF0446FEF709FAA82105224250E7
:4062C00004212046FEF774F9D0BDC046F0B503AF85B0049013214A01424333498C18FEF7F5F903902B21C90002916158890E1C220A4011182722D2008A584921C9006250D9
:40630000592189004250910A234B0B40900F234E31408A02002800D01A468F20800023581F4D1D4009052943114321502518029820580122D3061B4A184204D130401140BD
:406340000143084603E01140800A30400843334601932860FC24039E31594A68800A184081B20295049D2846904730598268029800680199084081B2284690473059C2686C
:406380000A4928469047192002010921084B284604F01AFC05B0F0BD00FC0F00FF030000FF0300C000FCFFFFC00A0020A57100000D710000F0B503AF83B00446FEF786F923
:4063C0000546842001210291295413204001604323490E182B20C1000191705868504920C00030585921890068508F2080003058F8216850204601F047F89520800002995B
:4064000031500199695825221201B1503018B6181249695C0422114201D003210160C420285C002803D10121204605F00FF9FC202858036815212046324698472046FEF7E2
:4064400045F9E8210A224250AC210022425004212046FEF7ADF803B0F0BDC0465B010000C00A0020D0B502AF0446092104F068FC012001022046FEF701FA0021062220469A
:4064800001F090F9D0BDC046B0B502AF04461320400160430C490D182046FEF717F99521890018226A502B21C900695825221201A950AA18FC2140580368152120469847BA
:4064C000204600F0E5FDB0BDC00A0020D0B502AF0446FEF7FBF8B4214158002906D1A8210122425004212046FEF762F8D0BD704780B500AF00F0A0F880BD7047F0B503AFE4
:4065000081B00446FEF7E2F8B421415804250C296BD8890001A289588F46C0465E65000086650000AA650000506500005065000054650000CE650000D8650000DE65000087
:40654000EA650000EA650000EA650000E4650000AC2139E02046FFF7F7FB002545E0E82105224250A821012200924250032100262046324600F02AFC2046FEF7A7F8B82184
:40658000465400990EE0AC2104254550032100262046324600F01AFC2046FEF797F8B82146540121090246501FE0C16E012922D1132149016143144A5118124A01238B544E
:4065C000E82105224250A821042545500DE02046FFF7E2FB002508E0AC21062204E0AC21052201E0AC210822425020462946FDF7DFFF01B0F0BD01210022204600F0E6FB68
:40660000F3E7C04633020000C00A0020704780B500AF0021042201F0C5F880BDD0B502AF0446FEF753F8AC210022425004212046FDF7BEFFD0BDC046F0B503AF85B00546A7
:406640000495FEF743F8AC2101910026465013214C016C436B4D2919029129590B880246AC320392FF22134200D0A2E001220092D20349681140FF2B1FD8002900D098E0C3
:4066800006460498FEF722F829598A7800210C2A009D00D986E02B469340584C234200D083E0072A72D0082A7CD1C16E002902D00178022976D1032171E0002979D1054672
:4066C0000498FEF703F8029C21688A78531E032B18D89A0001A3D2589746C04678670000EC6600003A67000072670000C26E012A42D1497801293FD1E82105224250A8216C
:4067000003223BE00F2A37D10878002838D10498FDF7DCFF064611200001201821680022D3432422FBF7C3FD072001997050042604983146FDF73CFF22E08422825C012AAF
:406740001ED1F82282582C4B134019221203934216D1C26EC36F934212D18968090F0426052942D008290BD1E821022242509C213FE00178002903D10199009A42500426C5
:4067800004983146FDF714FF284612E0C16E012923D0002906D10178022903D10221019A815001E00199455004210498FDF700FF3046E82140580A280DD1039800680028F6
:4067C00009D10921049804F031FB002803D104210498FDF7EDFE05B0F0BD0949029A5554E82105224250A821DDE7E82103224250A02100224250C3E700FC0F0058100000A3
:4068000037020000C00A00207047B0B502AF82B00446FDF75BFF05462046FDF75FFF95202B5C4F20800028186946086000210122204600F0DDFF02B0B0BD80B500AF00F0B0
:4068400027FC80BD80B500AF00F022FC80BD80B500AF00F01DFC80BDD0B502AF0446FDF735FFB42140581122032807DD04280BD00E280CD00F2809D1122208E0012803D0C6
:40688000032803D1082202E0072200E005220021204600F087FFD0BDD0B502AF04460321002200F093FA09211B22024B204604F08BF9D0BD0D710000B0B502AF04460025AE
:4068C00029462A4600F082FA2046FDF7FFFEAC21455004212046FDF76BFEB0BDD0B502AF04460121002200F071FA2046FFF754FAD0BDC046F0B503AF83B00446092104F0F1
:406900001FFA0120019001022046FDF7B7FF1320400160433B490D182046FDF7D7FEB4214158022603290ADD04290FD00E2910D00F2926D102900420324606460BE0012900
:4069400004D003291DD10290102600E00290012201E0029032462D6828486946086000212846334600F096FA002802D0019B029809E00223022E029805D1C16E002902D134
:4069800032E02D68019B2121C90040580068072801D1687804E02988CAB2824211D1080A00280ED169680120C203114209D11F221140884012490140012B04D0002913D0F2
:4069C00001E0012B10D10426204631462A4600F0FDF92046FDF77AFEAC210022425020463146FDF7E5FD07E0002120460A4600F0EDF92046FFF7D0F903B0F0BDFFFF00002F
:406A000010000100C00A0020B0B502AF0446FDF75DFEFC21405803680F21002520462A469847022120462A4600F0D0F92046FDF74DFEAC21455004212046FDF7B9FDB0BD27
:406A4000F0B503AF81B00446FDF740FE05460126F1022046FDF712FF1320400160430B490818112109014118FC202858436A084A2046984709211422064B204604F0A4F89B
:406A800031022046FDF7FAFE01B0F0BDC00A00205D7200000D710000D0B502AF82B00446092104F04DF9012001022046FDF7E6FE132040016043124908183921C9004158F6
:406AC00000290BD001292046FDF700FEAC210022425004212046FDF76BFD0EE071218900435C002BEFD03521C90040186946086000210F22204600F07BFE02B0D0BDC04622
:406B0000C00A00207047D0B502AF82B00446FDF7DDFD2121C9004058837A016814306A4610600F22204600F063FE02B0D0BDC046F0B503AF81B00446FDF7C8FD064603219F
:406B4000002520462A4600F041F92120C0003058027C002A05D009210B4B204604F034F810E02046FDF7B2FDB82145540121090245502046FDF7AAFDAC21455004212046C9
:406B8000FDF716FD01B0F0BD0D710000B0B502AF0446002529462A4600F018F92046FDF795FDAC21455004212046FDF701FDB0BDF0B503AF81B00446FDF788FD064601219C
:406BC000002520462A4600F001F92120C00030580068002809D02046FDF778FDAC21455004212046FDF7E4FC02E02046FFF7D4F801B0F0BDB0B502AF0446FDF767FD0546C3
:406C00000921204604F09CF8012001022046FDF735FE13204001604318490A582120C00028580068072801D1507804E01188CBB2834217D1080A002814D050680E490140EA
:406C40000F290FD104252046294600F0BFF82046FDF73CFDAC210022425020462946FDF7A7FCB0BD002120460A4600F0AFF82046FFF7E2FCB0BDC0461F800000C00A0020C6
:406C8000B0B502AF0446FDF721FDFC21405803681021002520462A469847022120462A4600F094F82046FDF711FDAC21455004212046FDF77DFCB0BD7047C04680B500AFF2
:406CC000132149014143044A53181B1D5350034900F0DCFA80BDC046C00A0020E16C000080B500AFFDF764FC80BDB0B502AF0446FDF7ECFC0546204600F010F8E86E012899
:406D000005D1E82005212950A82000212950F02004212950204600F0A9FBB0BDF0B503AF81B00646FDF7D2FC0446304601F0F2FC00250E223046294604F04EF81320400142
:406D400070431B490818134945548B2189004554114945541149455411494554114945548D2189004554104945541049455423210901455285202554882025548420255458
:406D800086202554E8202550F02025508920255401B0F0BD2E0200002F0200003202000033020000370200003502000036020000C00A0020D0B502AF0446FFF7AFFF002191
:406DC00020460A4600F002F8D0BDC046F0B503AF83B016460C460546FDF778FCB821425C0146B831012A2AD1032C01D000220A7001210902435840180290002B1FD0002E12
:406E000014D01320400168430E4908184D218900401801900021CB4324223146FBF747FA0298036828462146019A02E00022284621469847032C02D000200299086003B0D5
:406E4000F0BDC046C00A0020D0B502AF0446FDF73DFC0146E8200A580020002A18D0F0200B580120002B13D18623CB5C012B0CD0052A06D00A2A0BD1AC228958002907D1A5
:406E800003E0A8228958062902D1204600F03EFBD0BDC046B0B5072903D0057800248D422BD10121CD03022A08D0012A0BD0002A10D142780024002A1FD108E04268002497
:406EC0002A4207D119E042780024002A15D042682A4212D1002B07D042681F2414400A46A24000241A4208D0049A054B9A4203D040780024904200D10C462046B0BDC0465B
:406F0000FFFF0000F0B503AF87B004461320400160435649081806902046FDF7D7FB0646E82030583546E835002800D19BE0F02030583146F031002800D194E01020FDF73A
:406F40007FFC0246062A01D0012A43D10392FBF799F905902046049400F0DAFC04460021684601602023029320460A46FFF792FF214601280ED1F06E002851D0B06E0122B6
:406F80004240CA705001029A1040D3434A681A4002434A600868FF2210420AD1000EB26E824206D10598FBF771F9049800F070F859E0069C2068432205F040F80598FBF7CF
:406FC00065F9FC203058036822680B21049C20469847039A28682649095C8A4243D8401E092840D8800001A14058874614700000287000002C700000307000003C7000006F
:407000006670000066700000667000006670000048700000982030580A214143154818E00598FBF733F91EE0134813E0134811E0A42030580A21414311480AE0A82030581B
:407040000E2141430F4804E0AC2030580F2141430D48401880180078FF2804D080000B4909582046884707B0F0BDC046C00A002057DB000000DA000046DA000050DA00004E
:407080005ADA00006EDA0000D0DA000058D70000F0B503AF81B00446FDF718FB05460026204631463246FFF791FE76202E54A87C01280CD12046FFF731FE002120460A46B3
:4070C000FFF784FE01212046FDF7BEFA02E0204600F002F801B0F0BDB0B502AF0446FDF7F5FA0546E86E012803D10121204601F035FBF02000222A50862001212954FC20BD
:4071000028580368142120469847B0BD80B500AF012906D0022907D0092909D10121090204E00121090301E001214903FDF740FA80BDC046F0B503AF81B00446FDF7C6FA06
:4071400005460221204603F0FBFD012671032046FDF794FB85202E54132040016043044908188B2189000022425201B0F0BDC046C00A0020D0B502AF044613204001604351
:40718000074A10186122920080180022D3432422FBF78DF8012081022046FDF709FAD0BDC00A002080B500AF8021FDF701FA80BDF0B503AF81B00446FDF788FA05460426CE
:4071C000002220463146FFF701FEE82005212950A8200121295020463146FDF7E9F901B0F0BDC046F0B503AF81B00446FDF76EFA054600262046314601F0B0FA13204001EF
:407200006043154908180E4946540E4946540E49465484216E5488216E548D21890046540A4946540A49465423210901465209494654204600F060FBF0202E5001B0F0BD6E
